:100000006F40D052130000001300000013000000E6
:100010001300000013000000130000001300000094
:100020001300000013000000130000001300000084
:08003000130000007300100032
:10003800000000000000000030410000DC4100002A
:1000480000000000724C00000000000000000000EA
:10005800744C0000764C0000000000000000000016
:100068005C88000000000000E402000000000000BE
:100078007C4C00007E4C0000804C0000824C00004C
:10008800844C0000864C0000AE3600005E3700004D
:100098003C340000EE34000010380000924C0000A0
:1000A800944C0000964C0000984C00009A4C0000BC
:1000B8009C4C00009E4C0000A04C0000A24C00008C
:1000C800A44C0000A64C0000A84C0000A03500007D
:1000D800AC4C0000DC390000B04C0000B24C000011
:1000E8009A3A0000503B00000E3C0000BA4C000059
:1000F800BC4C0000BE4C0000C04C0000C24C0000CC
:10010800C44C0000A82F00006A300000508900008D
:10011800C2380000CE4C0000D04C0000D24C000089
:10012800FE3E0000D64C0000D84C0000DA4C00001F
:10013800DC4C0000DE4C0000CC3C0000E24C00002F
:100148003C310000FE3100008A3D0000403E0000C6
:10015800EC4C0000EE4C0000F04C0000F24C0000AB
:10016800F44C0000F64C0000F84C0000FA4C00007B
:10017800FC4C0000FE4C0000004D0000BC58000084
:10018800044D0000064D00007E330000E22E000002
:10019800BC3200000E4D0000104D0000BC3F0000B6
:1001A800144D0000164D0000184D00007A40000064
:1001B8001C4D00001E4D0000204D0000224D000087
:1001C800244D0000264D0000284D00002A4D000057
:1001D8000000000000000000000000000000000017
:1001E8000000000000000000000000000000000007
:0801F8000000000000000000FF
:10020000737504308280B76200009382820873A005
:1002100002308280970201209382C2DE938202E044
:100220007390023403210500224573100530B1A8F4
:1002300019712320250006C006C216CAF322003019
:1002400093F28200638402009302000816C412C86D
:100250001ACC1ECE22D026D22AD42ED632D836DAC6
:100260003ADC3EDEC2C0C6C2CAC4CEC6D2C8D6CAF6
:10027000DACCDECEE2D0E6D2EAD4EED6F2D8F6DAA6
:10028000FADCFEDE03A1050009A002457310153457
:100290009240378500001305058073200530224504
:1002A000732005304242D2426243F24302549254D8
:1002B0002255B2554256D2566257F25706489648D2
:1002C0002649B649464AD64A664BF64B065C965CCA
:1002D000265DB65D465ED65E665FF65F09617300B9
:1002E00020300000197116CA9302000816C4930248
:1002F000000273A0428006C212C81ACC1ECE22D0C1
:1003000026D22AD42ED632D836DA3ADC3EDEC2C025
:10031000C6C2CAC4CEC6D2C8D6CADACCDECEE2D0F5
:10032000E6D2EAD4EED6F2D8F6DAFADCFEDE7311C3
:100330000134EF604040EF70E06AEF60A04273115B
:1003400001341384819303290400630409022320E8
:100350000400732510342AC013840193044023A0A1
:10036000240013844193044003A104000245731048
:1003700015349240B78200009382028073A002304D
:10038000A24273A002304242D2426243F24302547C
:1003900092542255B2554256D2566257F2570648E9
:1003A00096482649B649464AD64A664BF64B065CFD
:1003B000965C265DB65D465ED65E665FF65F096159
:1003C000730020300000397101436EC619A03971E5
:1003D00041536AC866CA62CC5ECE19A03971015316
:1003E0005AD056D252D44ED64AD826DA22DC06DE6D
:1003F00033016140828241114AC026C222C406C62E
:100400008282B24D4101024D924C224CB24B4101CD
:10041000024B924A224AB249410102499244224483
:10042000B240410182803D432A876373C3029377C0
:10043000F700BDEFADE5937606FF3D8ABA960CC393
:100440004CC30CC74CC74107E36BD7FE11E2828057
:10045000B306C3408A069702000096966780A600FE
:100460002307B700A306B7002306B700A305B7000C
:100470002305B700A304B7002304B700A303B70004
:100480002303B700A302B7002302B700A301B700FC
:100490002301B700A300B7002300B700828093F5C3
:1004A000F50F93968500D58D93960501D58D61B78F
:1004B000939627009702000096968682E78086FA38
:1004C0009680C1171D8F3E96E374C3F8A5B7EFF26F
:1004D0009FF211E5814601468145BD213DBF05479B
:1004E000E30AE5FE0947E307E5FE0D47E304E5FE01
:1004F0001147E301E5FE1547E30EE5FC1947E30B61
:10050000E5FC1D47E308E5FC21476318E50081464B
:100510000146814513050002C9B725476318E50068
:100520008146014681451305100245BF29476318DE
:10053000E5008146014681451305000479BF2D473A
:100540006318E5008146014681451305100471B723
:1005500031476318E50081460146814513052004B3
:10056000ADBF35476318E500814601468145130557
:100570003004A5B739476318E50081460146814537
:100580001305400499BF3D47E31AE5F4814601464F
:1005900081451305500491B7EFF2FFE501111306F1
:1005A00000022A8481450A85BD3D22850D37854597
:1005B00013050020EF40103E014537240140EF4075
:1005C000102A13050440EF401000B7070E003EC686
:1005D0008A85854713050440230AF10002C002C240
:1005E00002C402C8EF403002854513050440EF40C5
:1005F000F006814513050440EF40900913050440BF
:10060000EF40D006930404402685EF40D0066DFDF0
:100610001305044037240140EF40700613040440E2
:100620002285EF4070066DFD0561C5BBEFF2BFDCB2
:10063000EF70E00CDDB3EFF21FDC411136842E8940
:10064000B284930680040146814546C042C23EC43E
:100650003AC6DD2C4A859306800401468145ED2487
:1006600026859306800401468145F92C2285930650
:10067000800401468145C92C324793068004014617
:100680003A858145D124A2479306800401463E85E0
:1006900081455D2C124893068004014642858145C0
:1006A0006524824893068004014646858145692C6D
:1006B00003454102930680040146814571240345A8
:1006C00001029306800401468145BD2C0345810249
:1006D0009306800401468145852C41013DBBEFF224
:1006E0009FD141112E84AA848545096532C636C43E
:1006F000EF407028B707055098238D451305600516
:100700001377F70C98A398231367270498A39833BB
:100710001377970F98B3A2463246D6A3F2A384C7A5
:10072000C0C798331377F70398B398331377F70F4D
:1007300098B3B82313674700B8A39833136717001B
:1007400098B398231367170098A3EF20E07613055A
:100750006005EF2020734101C9B1EFF2DFC92E849B
:100760009306800401468145C52293068004014614
:1007700081452285D12A55B1EFF2FFC73707002006
:10078000130707002A97AA8708235D678A071307BC
:1007900007A1BA9780439307F00F6316F5004A301C
:1007A000420541859DB941227DF94A303305A0407B
:1007B000C5BFDD67938707A10A053E951C412392BB
:1007C00007028280EFF23FC341112E849145AA8433
:1007D0003289EF00507DB7750100130640089385FC
:1007E000058CEF20E038268502C202C423160100E2
:1007F000EF00507D9375F90F1375F40FB93FB707EC
:10080000002093870700A69780A39355840085470F
:10081000639BF5043705160085451305050CEF406D
:10082000C07785450545EF40F0164800EF40B059C8
:10083000C167FD173EC4DD67938707A18A04BE9494
:1008400080404C0002C2228523060100EF40D026E2
:10085000228593050006EF40505B85452285EF40D9
:10086000F05741015DBEC5476398F5003705180094
:1008700085451305053065B7930710026398F500A9
:1008800037151A008545130505C051BF930720028F
:100890006398F50037151A0085451305058041B7A3
:1008A000930710036395F500854505658DBF930794
:1008B00010076399F500370701405C4F93E7470045
:1008C0005CCF85B7930710086398F50037070140A0
:1008D0005C4F93E70701EDB7930710096398F500A4
:1008E000370701405C4F93E70704D9BF93072009FE
:1008F000E399F5F2370701405C4F93E70702C9B768
:100900009357550013972700DD6793878792BA970F
:1009100098439377F50005453315F50099C108CB49
:10092000828048CB8280135735009376C7015D677C
:100930001307879236971C43984785473395A7003E
:10094000798D3335A0008280EFF25FA9411102C298
:1009500002C402C69307F00F6303F5061354550053
:100960001D889374F5003689328AAE8939E8854549
:100970001145EF4030028547B3949700C204C1800F
:1009800064826399F90093170901C183A18391E3FC
:100990008D473EC4DD67938787920A043E940040EA
:1009A0001379F90F4C0022854AC6EF406052854703
:1009B0006397F9005286A6852285EF40605D41016C
:1009C00081BC85476315F400854521455DB789479E
:1009D0006315F4008545414569BF8D476316F400F2
:1009E00085451305000271B79147E316F4F8854574
:1009F00013050004BDBFEFF21FA001E9930680318B
:100A0000014685452145893709BC85476318F500AE
:100A100093068031014685452545F5B7894763181A
:100A2000F50093068031014685452945E9BF8D478C
:100A30006318F50093068031014685452D45E1B7E1
:100A4000C1476319F50093068031014685451305BA
:100A5000900855BFC5476319F500930680310146DC
:100A600085451305B00845B7C9476319F5009306D6
:100A70008031014685451305D00871B7CD4763190C
:100A8000F50093068031014685451305E008A5BFB2
:100A9000930700106318F5009306803101468545E1
:100AA000014595B7930710106318F5009306803140
:100AB00001468545054581BF930720106318F50061
:100AC0009306803101468545094535BF93073010AF
:100AD0006318F50093068031014685450D4525B71D
:100AE000930700116318F500930680310146854590
:100AF0003D4511BF930710116319F500930680312E
:100B00000146854513053002FDBD93072011631989
:100B1000F50093068031014685451305A002E5B531
:100B2000930730116319F50093068031014685451E
:100B30001305B002C9BD930700206318F5009306A2
:100B400080310146854519457DBD93071020631806
:100B5000F50093068031014685451D456DB5930727
:100B600020206319F5009306803101468545130561
:100B7000000251BD930730206319F50093068031C0
:100B80000146854513051002BDBD93070021631979
:100B9000F500930680310146854513056004A5B52F
:100BA000930710216319F5009306803101468545AE
:100BB0001305700489BD930720216319F50093067E
:100BC0008031014685451305800435BD93073021EA
:100BD0006319F5009306803101468545130590049D
:100BE0001DB5930700226319F50093068031014675
:100BF00085451305400201BD930710226319F500D6
:100C0000930680310146854513055002EDBB9307DD
:100C100000306319F50093068031014685451305C0
:100C20006002D5B3930710306319F5009306803145
:100C30000146854513057002F9B393072030631907
:100C4000F50093068031014685451305800265BB9A
:100C5000930730306319F5009306803101468545CE
:100C6000130590024DB3930700316319F500930605
:100C70008031014685451305C00671B393071031D5
:100C80006319F50093068031014685451305D006AA
:100C90009DBB930720316319F5009306803101460F
:100CA00085451305E00685B3930730316319F500D8
:100CB00093068031014685451305F006A9B39307D5
:100CC0000040E30BF5DC93071040E301F5DE9307EA
:100CD0002040E307F5DE93073040E30DF5DE930790
:100CE0000070E308F5EA93071070E30FF5EA930745
:100CF0002070E306F5EC93073070E30DF5EC9307F5
:100D00000071E30AF5F093071071E301F5F2930720
:100D10002071E308F5F2930730716319F50093062B
:100D20008031014685451305D004F1B9930705804C
:100D3000E38807D8856713871780E30DE5D8138705
:100D400027806318E50093068031014685451145EB
:100D50005DB9938737806319F500930680310146AA
:100D600085451305400445B18567138707816319DD
:100D7000E50093068031014685451305900661B173
:100D8000138717816319E500930680310146854575
:100D90001305B0068DB913872781E305E5EE1387A8
:100DA0003781E307E5F013870790E30CE5E8138745
:100DB0001790E303E5EA138727906319E50093068C
:100DC0008031014685451305300435B913873790C6
:100DD0006319E50093068031014685451305B0048B
:100DE0001DB1138707916319E50093068031014611
:100DF00085451305100601B9938717916319F5000E
:100E0000930680310146854513053006EDBE8567A2
:100E1000138727916319E5009306803101468545C4
:100E200013055006CDB6138737916319E500930675
:100E300080310146854513057006F1B61387079288
:100E4000E30EE5CA13871792E301E5DA13872792C9
:100E5000E308E5DA93873792E318F5BA9306803111
:100E6000014685451305F00479BE935785005D67FB
:100E7000130707A18A07BA9798430D890A055E37B9
:100E80003A95B385F502896793870771B3D5F50263
:100E9000C205C1814CD98280EFF24FD41354850032
:100EA00001112A892E8A22858D45B28902C202C487
:100EB0002316010002C802CA02CC02CEEF00B00E17
:100EC000B77501001306900B9385C593EF10504A38
:100ED0002285EF00300F4A85393E85450545EF40B4
:100EE000602B9357490005476398E70A37051600BA
:100EF00085451305050CEF40400A83A481860A044A
:100F000023150100B3D74403231301002306010076
:100F100013793900C18393851700B38545037C821B
:100F2000DD67938707A13E9400402285B3D4B402C5
:100F30004C001387F4FFC204C180B3843403788467
:100F4000EF408037C167938707073EC8896793875B
:100F50000771231A010002CEB3D4F402B7070200CE
:100F600089073ECCE4836316090C0C082285EF4008
:100F7000403FA1452285EF40C06A91452285EF4060
:100F8000C06E22858545EF40E06685452285EF40AD
:100F9000E06405616FF0CFC745476398E700370508
:100FA0001800854513050530B9B71307100263987B
:100FB000E70037151A008545130505C02DBF130737
:100FC00020026398E70037151A0085451305058050
:100FD0001DB7130710036395E7008545056521BF1D
:100FE000130710076399E700370701405C4F93E749
:100FF00047005CCF19B7130710086398E70037075D
:1010000001405C4F93E70701EDB7130710096398A0
:10101000E700370701405C4F93E70704D9BF130788
:101020002009E39CE7EC370701405C4F93E7070298
:10103000C9B785476310F9020C082285EF40803A52
:101040002285A145EF40C05E930500402285EF4018
:10105000A06205BF89470C082285631DF900EF4097
:1010600040432285A145EF40005E91452285EF4037
:10107000006201BFEF40A04C2285A145EF40805D9A
:10108000930500402285EF406061E5BD41112AC60D
:10109000B2471387F7FF3AC6E5FF41018280EFF2BE
:1010A0008FB51C41DD649384849213D757000A07DF
:1010B000269718430544BD8BB317F4001CCB5C4145
:1010C0002A89484513D757000A0726971843BD8B2E
:1010D000B317F4001CCB5D3F832749000325C900EB
:1010E00013D757000A0726971843BD8BB317F40090
:1010F0005CCB693F03270900935757008A07BE94CA
:101100009C403D8B3314E400C0CB6FF00FB1EFF285
:101110008FAE5C415D691309899213D757000A07A6
:101120004A9718438544BD8BB397F4005CCB1C41B0
:101130002A84484513D757000A074A971843BD8B9E
:10114000B397F4005CCB99371C40484413D7570041
:101150000A074A971843BD8BB397F4001CCB3D3761
:1011600058404844935757008A073E9983270900FF
:101170003D8BB394E40084CB113F6FF00FAAEFF2E4
:10118000EFA5DD6441112A84254993848492854921
:101190007D191379F90F4844631009061C4005496D
:1011A00013D757000A0726971843BD8BB317F900CA
:1011B0005CCBE93D1C40484413D757000A072697EB
:1011C0001843BD8BB317F9001CCBC9354840EFF06D
:1011D0008FF51C40AA89484413D757000A07BA94D0
:1011E0009840BD8B3319F900232A2701453513B5E3
:1011F000190041016FF0CFA15C4093968501E18613
:1012000013D757000A072697BD8B1843B397F900E9
:1012100063D006041CCB860593F5F50F2EC6BD35AD
:101220001C40484413D757000A0726971843BD8B24
:10123000B397F9001CCB993D1C40B24513D757001A
:101240000A0726971843BD8BB397F9005CCB89B783
:101250005CCBD1B7EFF28F981C41DD649389849207
:1012600013D757000A074E9718432A840549BD8BA8
:101270004845B317F9005CCB2E8A093D584093844A
:101280008492854A935757008A07CE979C433D8B9B
:101290003319E90023A82701A5490149FD1993F94C
:1012A000F90F4844639309081C40854913D7570038
:1012B0000A0726971843BD8BB397F9005CCBF93327
:1012C0001C40484413D757000A0726971843BD8B84
:1012D000B397F9005CCB5D3B5C4013D757000A071E
:1012E0002697BD8B1843B397F90063030A081CCBFC
:1012F0001C404844854913D757000A0726971843CE
:10130000BD8BB397F9001CCB51331C40484413D715
:1013100057000A07BA949840BD8BB399F900232A65
:101320003701AD334A856FF0AF8E8D331C40484492
:10133000060913D757000A0726971843BD8BB397A2
:10134000FA005CCBA1331C4048441379F90F13D742
:1013500057000A0726971843BD8BB397FA001CCB9A
:1013600035334840EFF02FDC15D9136919003DB72C
:101370005CCBBDBFEFF22F88AA87411194C3D8C3BD
:101380008CA7D0C736850546C14685453AC6EFF0DD
:10139000AFDB3247D146054685453A85EFF0CFDAD7
:1013A00041016FF08F87EFF20F8541112A8432C619
:1013B000AE84F5310C242285860593F5E50FC13303
:1013C000A68522856D3B32462285B2854D3B22851E
:1013D0003D3B41016FF06F84EFF2EF812A84AE84D0
:1013E0007D390C242285860593F5E50F493BA685BA
:1013F00022857133228565310C242285860593E58B
:10140000150093F5F50FA53B85452285A135AA84E6
:101410002285F53926856FF04F80EFE23FFC2A8464
:101420003289B684AE89A5390C242285860593F5C8
:10143000E50FB133CE852285993322858D310C2479
:101440002285FD59860593E5150093F5F50F053BBB
:10145000FD146396340122855D396FE07FFB93B5FF
:10146000140022850509FD33A30FA9FED5B7EFE2CD
:101470009FF8AE843284368929E59306803105468B
:1014800085451545EFF04FCC8947639AF4089306DC
:101490008031054685451D45EFF00FCB8547631E1E
:1014A000F40C93064030054681451945EFF0CFC94D
:1014B00093060031014685454A85EFF0EFC86FE09D
:1014C000DFF5C1476319F500930680310546854570
:1014D0001305300245BF930700026319F500930618
:1014E0008031054685451305D00269BF9307000387
:1014F000E30CF5FC930700046319F50093068031B3
:10150000054685451305A004B5BFB7750100130650
:1015100090029385059A0145EF108065B5B7C947DC
:101520006399F40093068031054685451305500202
:10153000A5B7930720026399F4009306803105460E
:1015400085451305F00289BF93072003E38CF4FC63
:10155000930720046399F40093068031054685457E
:101560001305C00415BFB77501001306000393856A
:10157000059A0145EF10C05F15B7C5476319F40020
:1015800093064030054681451305400205B7930791
:1015900010026319F4009306403005468145130597
:1015A000E00229B7930710046319F4009306403052
:1015B000054681451305B004D5BD93071003E3012B
:1015C000F4FC9307F00FE305F4EEB7750100130682
:1015D00080039385059A0145EF108059D1BDEFE254
:1015E0001FDF3E8BDD67BA8A938747A0131725005C
:1015F000BA9783A9070001112A894E85AE84B28B60
:10160000368A428402C602C802CA02CC231E0100E6
:10161000EF30D03F85450545EF30D037C1476313E4
:10162000FA0CC9476399FA00C5476316FB00854564
:101630000545EF3090166317090C85450565EF30B9
:101640007035A2865A86D68552851535B7070401AE
:101650003EC62318010085476389F40CF1C0094791
:101660006389E40C8D466388D40C03A481869307B8
:10167000F00F335474034204418063E1870C9307F5
:10168000F00763E0870C9307F00363EF870AFD47D9
:1016900063EF870ABD4763EF870A9D4763EE870ABA
:1016A0008D4763ED870A854763EC870AB7750100AC
:1016B0001306D0089385059A0145EF10604B9307F8
:1016C0000020FC836C009D474E85FC86E084231D32
:1016D0000100EF30F03885454E85EF30503C056114
:1016E0006FE07FD293070004E317FAF49307200416
:1016F000E393FAF493071004E31FFBF285453715D3
:10170000200005BF85476317F90085451165EF3057
:10171000502A05BF8947E316F9F285452165C5BF03
:1017200023190100231A010089B723190100E4825B
:101730002DBFE481C5BFF881FC8205BF130480037F
:10174000BDBF13040003A5BF130480028DBF1304A3
:101750000002B5B76144A5B7414495B7214485B7A8
:101760000144B1BFDD670A05938747A0AA97984354
:101770004EA71E2793F70708EDFF8280DD670A0555
:10178000938747A0AA979C4313D78500DAA79A2787
:10179000137707086DFF93F5F50FCEA79A271377F8
:1017A00007086DFF828093172500138581AC3E9555
:1017B0001C4181E70CC1054582803385B740133554
:1017C00015008280EFE23FC301E9056585451305F9
:1017D0000580EF30301C39A005476317E5008545CB
:1017E000EF30301D6FE07FC30947E30AE5FE0D4788
:1017F0006315E50085451145E5B711476315E5001B
:1018000085452145F1BF15476315E50085454145EF
:10181000C1BF19476316E500854513050002C9B726
:101820001D476315E5008545096565B721476316C2
:10183000E50085453705080069BF2547E314E5FA4B
:1018400085453705100071B7EFE2FFBA2E841DE120
:10185000E146014685452545EFF00F8F8547631228
:10186000F41493068004014681452945EFF0CF8D9D
:101870006FE0BFBA89476318F500E1460146854528
:1018800013056002D1BFC1476317F500E146014669
:1018900085450945D1B7C9476318F500E1460146BA
:1018A0008545130550064DBF930700026318F500E8
:1018B000E146014685451305A00279BF9307200242
:1018C0006318F500E146014685451305A00469B794
:1018D000930740026318F500E1460146854513056C
:1018E00080069DBF93070004E30EF5FC93072004D8
:1018F0006318F500E1460146854513050002A9BFBE
:10190000930700056318F500E14601468545130578
:10191000C00499B7930720056318F500E146014616
:101920008545130580080DBF9377D5FF1307000683
:101930006398E700E146014685451305000429BF89
:10194000930700076318F500E14601468545130536
:10195000200419B7930720076317F500E1460146F5
:1019600085451945D5BD930740076318F500E14645
:10197000014685451305C008C5B5930700086318DF
:10198000F500E1460146854513054004F1B593078E
:101990002008E315F5ECE146014685451305E0080E
:1019A00065BD8D476319F4009306800401468145A7
:1019B0001305700265BDC5476318F40093068004E3
:1019C000014681450D455DB5CD476319F400930689
:1019D0008004014681451305600649BD9307100246
:1019E0006319F40093068004014681451305B00293
:1019F000B5BD930730026319F400930680040146D5
:101A000081451305B0049DB5930750026319F40096
:101A100093068004014681451305900681BD930716
:101A20001004E30CF4FC930730046319F4009306EC
:101A3000800401468145130510020DBD9307100572
:101A40006319F400930680040146814513052006BE
:101A500031BD930730056319F400930680040146F5
:101A600081451305900819B5930710066319F40012
:101A7000930680040146814513051004C5BB9307F6
:101A800030066319F400930680040146814513056E
:101A9000B008E9BB930710076319F40093068004AC
:101AA0000146814513053004D1B39307300763180D
:101AB000F40093068004014681451D4545BB93070C
:101AC00050076319F400930680040146814513050D
:101AD000D00869BB930710086319F40093068004CB
:101AE000014681451305500451B393073008E311B3
:101AF000F4D893068004014681451305F008BDB370
:101B0000DD670A05938787A3AA9798431E2393F757
:101B10000708EDDFC205C1814EA38280EFE2BF8DD1
:101B20002A892E84B384C500631494006FE0FF8E6D
:101B300005048345F4FF4A85E137FDB7EFE2BF8B2B
:101B4000DD6713172500938787A3BA97AA84884374
:101B50002E862E8493055052EF3010451385C18395
:101B600026950821B7E700E0AA972380074009C41B
:101B7000EF1040316FE07F8AEF106032E5BFDD6724
:101B80000A05938787A3AA9798431E2393F7070212
:101B9000EDDF5E239CA18280DD670A05938787A322
:101BA000AA9798431E2393F7070289C75E2305452A
:101BB0009CA1828001458280EFE25F8241112A84EC
:101BC000AE89054585453289B684EF30A05CA6858F
:101BD0004A859D3989476317F9048D476396F40058
:101BE00085451145EF30603B63170412854511654B
:101BF000EF30405AB7070C003EC4DD67938787A3D8
:101C00000A043E9400408A854EC0228502C22316F3
:101C10000100EF30502C85452285EF30903741018F
:101C20006FE00FFFC9476318F900CD47E39EF4FA50
:101C30008545214545BF93072002631BF9009307A3
:101C40003002E393F4FA370514008545410559BF86
:101C500093074002631CF90093075002E396F4F8DF
:101C600037051400854513050503ADBF9307200410
:101C7000631DF90093073004E398F4F63707014039
:101C80005C4FC166D58F5CCF85B793072005631C79
:101C9000F90093073005E399F4F4370701405C4FEE
:101CA000B7060800C5B793072006631CF900930721
:101CB0003006E39BF4F2370701405C4FB706200083
:101CC000D1B793072007631CF90093073007E39D02
:101CD000F4F0370701405C4FB706400065B7930743
:101CE0004007631CF90093075007E39FF4EE3707A2
:101CF00001405C4FB706800071B793072008E315D9
:101D0000F9EE93073008E391F4EE370701405C4F9A
:101D1000B706000285BF85476318F400854537057F
:101D20000200EF300049F9B589476316F400854594
:101D300037050400FDB78D476316F4008545370568
:101D40000800C5B791476316F400854537051000B4
:101D5000C9BF95476316F400854513050004D1B744
:101D600099476316F4008545130500085DBF9D473C
:101D7000E312F4E885451305001065B7EFE2AFE71D
:101D8000DD6703A44793930400101309004004C8BF
:101D900044C8AA85232A24010545EFF0BF9C2328C7
:101DA000240104C844C86FE04FE7EFE22FE3B71700
:101DB000002083A7072EAA89AE8432893684A1EB3E
:101DC0001305A002653F93854903C205C1810545FE
:101DD000EFF0DF9A93054903C205C1810545EFF095
:101DE000FF991305B002593F93858402C205C18152
:101DF0000545EFF0BF9893058402C205C1810545F2
:101E0000EFF0DF971305C002953F6FE06FE00547E5
:101E1000639FE7001305A002953793855903C20518
:101E2000C1810545EFF09F959305590375B7930957
:101E3000850213098602C2094209094793D909019B
:101E4000135909011305A0026398E702053FCE85E7
:101E50000545EFF0BF92CA850545EFF03F921305A7
:101E6000B002293F93855403C205C1810545EFF0B7
:101E7000FF909305540351B71137CE850545EFF018
:101E8000FF8FCA850545EFF07F8F1305B002FD3542
:101E900093854403C205C1810545EFF03F8E93054C
:101EA0004403A1BFEFE22FD503C6618083C67180D2
:101EB000AA8481453304D602FD167D16C206420669
:101EC000C18241820145D53519E06FE00FD5A68565
:101ED0000545EFF0BF8A7D14C5BFB717002023A0CA
:101EE000A72E8546138761809387718063E8A600DB
:101EF000930670F814A3415798A38280C15614A387
:101F0000130770F8D5BF2392A1802394B1848280F7
:101F1000EFE26FCE3284AE862A86413DA28505452A
:101F2000EFF0DF856FE06FCFEFE26FCAAA8903C5DC
:101F30006180B77401002E8B3284938584A51306CB
:101F4000701033B5A900EF00B04203C571801306CD
:101F50008010938584A53335AB00EF007041DD67B9
:101F6000138A790012049387C7BF420A3E9401493D
:101F7000135A0A01C14BB3062B01C206C182528615
:101F8000B6854E851D35834A04E0A14493F71A00B7
:101F900095C383D54180FD14054593F4F40FEFF00C
:101FA000EFFD93DA1A00FDF005090504E31579FD4C
:101FB0006FE06FC583D58184F9BFEFE22FC2AA8499
:101FC00003C56180377401002E8933B5A4009305E1
:101FD00084A5B28913066012EF00903903C57180A1
:101FE000930584A5130670123335A900EF0050380D
:101FF0000144B38789000386070019E26FE04FC1EF
:1020000013153400269542050504CA854181420412
:10201000213F4180F9BFEFE26FBCAA8903C561800F
:10202000B774010041112E8A33B5A900938584A5A8
:1020300032891306D0133684EF00903303C57180C4
:102040001306E013938584A53335AA00EF005032C0
:102050001306F013938584A533358000EF005031CB
:1020600013060014938584A51335B400EF00503097
:102070001306140093050002480002C202C402C6FF
:10208000EFE06FBAA54763F68702CA854800EF0004
:10209000F0385000D2854E850D3741016FE04FB7C3
:1020A000B387E7027D141374F40F7DF83369F902E6
:1020B000E9BF85472947D5BFEFE24FB2AA8903C5DB
:1020C0006180B774010041112E8A33B5A900938550
:1020D00084A532891306F0153684EF00702903C5F4
:1020E000718013060016938584A53335AA00EF008E
:1020F000302813061016938584A533358000EF0031
:10210000302713062016938584A51335B400EF00FD
:102110003026228693050002480002C202C402C68D
:10212000EFE06FB0A54763F68702CA854800EF006D
:10213000D0345000D2854E85493541016FE04FAD16
:10214000B387E7027D141374F40F7DF83379F90235
:10215000E9BF85472947D5BFEFE24FA8AA8903C544
:102160006180B7740100797132842E8A1306401899
:10217000938584A533B5A90036892AE6EF00501F60
:1021800003C5718013065018938584A53335AA00C2
:10219000EF00101E13066018938584A53335800068
:1021A000EF00101D13067018938584A51335940055
:1021B000EF00101C13068018938584A53335200189
:1021C000EF00101B13069018938584A51335790032
:1021D000EF00101A3306240109069305000268086F
:1021E00002CE02D002D202D423060102EFE0AFA356
:1021F000A547326563FE8702CA856808EF0070381C
:102200007008D2854E85553B45616FE06FA05377CE
:10221000F7107D141374F40F7DF8D31705C053170E
:1022200007C0B3C7E702D3F707D04BF5E750E9B7CC
:10223000B777010007A7C7ABB777010087A707AC3F
:10224000E1BFEFE24F983E8A2A8403C56180B779E7
:102250000100AE843335A400938589A5328D130621
:10226000001D4289368CBA8DC68CEF00701003C5F4
:102270007180938589A51306101D33B5A400EF0066
:10228000300F9306F9FF1306FAFFA6962296C206B0
:102290004206A685C18241822285C16AEFF0FFB065
:1022A00081498144FD1A63E424016FE08F9533D4A2
:1022B0002903814B014B330484036A9463654B010A
:1022C0008504EE99CDB7B3D74B03A2979C236392B5
:1022D0000C02C207C18393D5370089831397B500D9
:1022E0009607D98FDD8D0545EFF04FC9050BE29BB1
:1022F000F1B78145E3E997FFD685F5B7EFE2AF8FF8
:1023000003A681861308F00F130720029307F00F2E
:1023100093060002058281450545EFF04FACC146AA
:10232000014685451305A006EFE00FE2C1460146D0
:10233000854513059006EFE02FE1C146014685452E
:1023400013058006EFE04FE08545C14605461305BD
:10235000000637140020EFE02FDF1304042E08409E
:1023600013090020EFF07FB7DD6783A447931305BF
:10237000800C23AA2401EFE06FAB1305400623A8CD
:102380002401EFE0AFAA13056003EFF03F9F1305B0
:102390004006EFE0AFA91C40814589CF0547930572
:1023A000000C6389E7000947930500076384E70091
:1023B0009305000A0545EFF0EFBA1305A003EFF00F
:1023C000FF9B95450545EFF0EFB91305200BEFF0A6
:1023D000FF9AB1450545EFF0EFB8B1450545EFF07F
:1023E0006FB881450545EFF0EFB79305300305451C
:1023F000EFF04FB7930530030545EFF0AFB6130587
:10240000700BEFF0BF97930550030545EFF08FB5C4
:102410001305B00BEFF09F96930570030545EFF0A1
:102420006FB41305000CEFF07F959305C0020545CE
:10243000EFF04FB31305200CEFF05F948545054591
:10244000EFF04FB21305300CEFF05F93C94505452F
:10245000EFF04FB11305400CEFF05F9293050002CF
:102460000545EFF02FB01305600CEFF03F91BD452F
:102470000545EFF02FAF1305000DEFF03F909305EA
:10248000400A0545EFF00FAE9305100A0545EFF041
:102490006FAD1305000EEFF07F8E9305000D05451F
:1024A000EFF04FAC91450545EFF0CFABB545054595
:1024B000EFF04FABC5450545EFF0CFAACD4505453B
:1024C000EFF04FAA9305B0020545EFF0AFA99305D1
:1024D000F0030545EFF00FA9930540050545EFF022
:1024E0006FA89305C0040545EFF0CFA7E14505456A
:1024F000EFF04FA7B5450545EFF0CFA6AD45054533
:10250000EFF04FA6FD450545EFF0CFA5930530024E
:102510000545EFF02FA51305100EEFF03F8693054C
:10252000000D0545EFF00FA491450545EFF08FA391
:10253000B1450545EFF00FA3C5450545EFF08FA266
:10254000CD450545EFF00FA29305C0020545EFF01C
:102550006FA19305F0030545EFF0CFA0930540046C
:102560000545EFF02FA0930510050545EFF08F9F6F
:102570009305F0020545EFF0EF9EFD450545EFF0B0
:102580006F9EFD450545EFF0EF9D93050002054563
:10259000EFF04F9D930530020545EFF0AF9C13051A
:1025A0001002EFF0AFFD4545EFF04FFD130580073A
:1025B000EFE0CF8713059002EFF04FFC03D5818445
:1025C000EFF05F8E6FD07FE5EFD2FFE2411113078E
:1025D000B0029306A00213064006930580061385F9
:1025E00001AFEFE03FD913054006EFE02F849307DA
:1025F000F00F01469305B006138501AF7C87EFE02D
:102600009FDA1D46E545138501AFEFE0DFD99D4414
:102610003C87C207C1878DC33C87E545138501AF61
:10262000FD17C207C1877C87EFE01FDB2A89294598
:10263000EFD0DFFFE31E99FC3C87C207C18763D060
:10264000070237760100B775010001459306F004D3
:10265000130646AC9385C5B2252B0545B9A801469E
:102660009305B006138501AFEFE0FFD31D46E545A6
:10267000138501AFEFE03FD31146E945138501AF64
:10268000EFE07FD26146ED45138501AFEFE0BFD1AA
:102690004146F145138501AFEFE0FFD001469305B8
:1026A000A006138501AFEFE01FD0138501AF0946E7
:1026B00093057003EFE03FCF014541016FD0FFD597
:1026C000EFD27FD34111300099469305B0031385B3
:1026D00001AFEFE09FD41C849884A207D98F239583
:1026E000F1841C859885A207D98F2396F1841C86D6
:1026F0009886A207D98F2397F18441016FD0FFD12B
:10270000EFD27FCF411130009946930530041385F5
:1027100001AFEFE09FD01C849884A207D98F239843
:10272000F1841C859885A207D98F2399F1841C8692
:102730009886A207D98F239AF18441016FD0FFCDEB
:10274000EFD2DFC9411193070008370B00207D79D4
:102750007C85130BCB0001441309591A930A000816
:102760009384C185254A83570B0011466C0013974B
:102770008700A183D98F1145231621017C87EFF0B3
:10278000EFB923155101938701869C231387018696
:1027900093F7F70F8DCB3C85C207C1876343F000E9
:1027A00029C09C3023000700B820A2070504D98F58
:1027B00042042311FB004180110BE31644FB014549
:1027C00041016FD0FFC43C8593960701FD17C207F6
:1027D000C187C1867C85E350D0FC0545EFD01FE55D
:1027E0005DB70545F1BFEFD21FC183C7F185938562
:1027F000C185BE951145EFF02FBA9384C1859387AB
:10280000F18501C59823050798A394230547639B89
:10281000E60094201307500A6384E6002380070033
:102820006FD0BFBF0D46E39DC6FE23800700238007
:10283000E186FDB7EFD29FBA01110D45B12A896536
:102840001306000593061005938505581145EFF012
:10285000AFB685451145EFF06FAE938701862380B3
:102860000700EFF0FFED1306501549E113840186D0
:102870002300040093070008B7040020FC8593841C
:1028800004032300040013898402930950FA9E2054
:1028900011466C08A30EF100BE201145230E310134
:1028A00013978700A183D98FFC87EFF02FA70945E5
:1028B0009104EFD0BFD7E31C99FC1C2093F7F70FCE
:1028C000A9C393070008FC85230004009384C185F5
:1028D0001309F00F9C30B820F98F63922705BC854F
:1028E000C207C187634BF0041306C015B77501001A
:1028F000938585B40145AD2C0544228505616FD0D3
:102900003FB1BC8513970701FD17C207C1874187F7
:10291000FC85E358E0FA0545EFD05FD179BFBC856F
:1029200013970701FD17C207C1874187FC85E3584C
:10293000E0FA0545EFD09FCF71BF23000400EFF010
:102940003FE02A8401C5130640164DB791473EC4A7
:1029500095473EC299473EC09308900213088002F3
:10296000930760021307B0049306900413068004D3
:10297000A9452545EFD03FCC371500200D6613073C
:10298000055E8546130606C181451305055E23AC29
:10299000E184EFD0DFD495B723A2A1868280EFD265
:1029A0009FA523A4A186B71702409843B706FFF856
:1029B00041111367170098C3D84337060200758F7B
:1029C000D8C39843B706F7FEFD16758F98C3984392
:1029D000B706FCFFFD16758F98C3D843B70681FF75
:1029E000FD16758FD8C337079F0098C702C402C66B
:1029F0009843C166558F98C3B716024005679C423D
:102A0000F18F3EC6A24785073EC4B24781E7A24781
:102A1000E397E7FEB71702409C431397E700635D17
:102A2000070685473EC6324785476314F7123727A6
:102A300002401C43B7366E019386066093E7070198
:102A40001CC31C43F19B1CC39307F5FFB3D7D702EC
:102A500010439D8BD18F1CC3B7170240D843D8C3F6
:102A6000D843D8C3D843D8C337177A0013070720F1
:102A70006316E502D843B7160240719BD8C3D8430A
:102A800013671700D8C31147DC42B18BE39EE7FE02
:102A9000152941016FD07F9802C671B7D843370618
:102AA000C1FF7D16718FD8C33747950813070740BC
:102AB0006313E504D843C166558FD8C33717024066
:102AC0001C43B7060001D58F1CC3B71702409843BB
:102AD00093166700E3DD06FED843B7160240719BEC
:102AE000D8C3D84313672700D8C32147DC42B18B32
:102AF000E39EE7FE71BF37172707130707E063164A
:102B0000E500D843B706390045BF37E7B8051307D6
:102B100007806316E500D843B706290071BF37A7C1
:102B20004A04130707206316E500D843B7061D00C3
:102B300061B73777DC02130707C06316E500D84397
:102B4000B706110095BFE31BD5F6D843B7060500BD
:102B5000A5B701A0EFD23F8AF165930610021306D4
:102B60000002938505200945EFF00F856FD0FF8A9D
:102B700019EDEFD25F8883C7C18699C73775010009
:102B8000130545BBEF00F1043D2E0100FDBF82801F
:102B900015E103C7C18619CFEFD2FF85B28737751C
:102BA00001003686130545BDAE86BE85EF00710275
:102BB0006FD0BF868280EFD27F82DD642E8A328919
:102BC0000144938484A36355240383A9C40193051A
:102BD00000044E85EF2030417DD9B3078A008385FC
:102BE00007004E850504C205C181EF20503FE1BFBB
:102BF0004A856FD0FF8181472546A9451421138757
:102C000006FD1377F70F6374E6003E858280B38775
:102C1000B7020505938707FDB697CDB763DA0500C0
:102C20009307D0021CA1050541118147A94635A093
:102C3000E5FD930700031CA1828018081388170084
:102C4000BA9733E7D502B3C5D5021356F741318F92
:102C5000118F2388E7FE9377F80FE5F18A86B69700
:102C60006394F6004101828003C7F7FF0505FD1755
:102C700013070703A30FE5FEE5B795C94111814787
:102C80002947A5461308010113861700C29733F898
:102C9000E502238807FF33D8E5029377F60F63EC4C
:102CA000B6008A86B697639AF60041018280930740
:102CB00000031CA18280C285F1B70387F7FF0505D9
:102CC000FD171356F741318F118F13070703A30F19
:102CD000E5FED1BF830705001307D002639CE70020
:102CE00005058546B7770100530500F0254607A77F
:102CF00007AC29A81307B0028146E395E7FE050556
:102D0000D5B7D3F707D005054375E5780307050068
:102D10009377F70F938707FD93F5F70FE373B6FEED
:102D20009307E002530700F0631BF70237770100B7
:102D3000872607AC0505814725461821130707FD9F
:102D40009375F70F6373B60237760100872706ACD9
:102D50001307F00FFD1793F7F70F6391E702537511
:102D6000E50099C25315A5208280D37707D0850747
:102D700093F7F70F4377D7780505C1B75377F7185F
:102D8000D1BFD30700F0D31605C0D317F5A0A5C354
:102D90009307D0021CA10505D3F706D037770100B1
:102DA00079715375F508872707AC9307F00FFD1568
:102DB00093F5F50F6398F504531705C00146A9452F
:102DC00093172600B9E213088100C297AA858505EA
:102DD000631AF80493061600AA969307E002329548
:102DE0001CA139EF930700031CB145618280D327F2
:102DF000F5A0DDD3930700031307E0021CA118B16F
:102E00003CA182805375F5105DB713080103C2978A
:102E100033E8B60205061376F60F23AC07FDB3C6FA
:102E2000B60279BF83A6C7FFF11793D8F641B3C6A0
:102E3000D800B386164193860603A38FD5FE41BF03
:102E4000814729469385170008188A07AA97336592
:102E5000C7023347C70223A6A7FE93F7F50F7DF3FA
:102E600070088A07B297E302F6F803A7C7FF850642
:102E7000F1179355F7412D8F0D8F13070703A38F7C
:102E8000E6FED5B7935755000547938707043315DA
:102E9000A7008A0737E700E0BA9788C38280935774
:102EA00055000547938707063315A7008A0737E7BC
:102EB00000E0BA9788C38280B7E700E03E95230020
:102EC000B54082808280EFD20FD383A7018713841D
:102ED000018799E3EFD0CFB21C4085071CC06FD0AB
:102EE000CFD335712AC52EC306CF16CD1ACB1EC936
:102EF00022C732C1B6DEBADCBEDAC2D8C6D6F2D438
:102F0000F6D2FAD0FECE82E686E48AE28EE012FEA7
:102F100016FC1AFA1EF82AF62EF432F236F03AEEC1
:102F20003EEC42EA46E83724004072E676E47AE274
:102F30007EE0EF3050009305505213050480EF20DF
:102F4000300B09C9EFD0604B930550521305048034
:102F5000EF20D00DEF3010013A44FA40EA425A43D4
:102F6000CA432A459A450A46F6566657D6574658E2
:102F7000B658265E965E065FF64F3660A66016610E
:102F800086617272E2725273C2733275A2751276E2
:102F900082767267E2675268C268326EA26E126F02
:102FA000826F0D617300203035712AC52EC306CFA4
:102FB00016CD1ACB1EC922C732C1B6DEBADCBEDAC4
:102FC000C2D8C6D6F2D4F6D2FAD0FECE82E686E4D5
:102FD0008AE28EE012FE16FC1AFA1EF82AF62EF489
:102FE00032F236F03AEE3EEC42EA46E8374401402F
:102FF00072E676E47AE27EE0EF30E07393055052B9
:1030000013050480EF20C07E19C5930550521305A7
:103010000480EF20B001EF30E0743A44FA40EA4215
:103020005A43CA432A459A450A46F6566657D65722
:103030004658B658265E965E065FF64F3660A66026
:10304000166186617272E2725273C2733275A27532
:10305000127682767267E2675268C268326EA26E3A
:10306000126F826F0D617300203071712ACD2ECBEB
:1030700006D716D51AD31ED122CF32C936C73AC5C4
:103080003EC342C1C6DEF2DCF6DAFAD8FED682EEE4
:1030900086EC8AEA8EE892E696E49AE29EE02AFEC0
:1030A0002EFC32FA36F83AF63EF442F246F0374455
:1030B000004072EE76EC7AEA7EE8EF30C067930566
:1030C000505213050440EF20A07219CD9305F10072
:1030D0000545EFE07FAC8887EF50F0139305505221
:1030E00013050440EF208074EF30C0677A44BA5073
:1030F000AA521A538A536A45DA454A46BA462A47BB
:103100009A470A48F658665ED65E465FB65F7660B6
:10311000E6605661C6613662A662166386637275A2
:10312000E2755276C2763277A27712788278726E22
:10313000E26E526FC26F4D617300203035712AC547
:103140002EC306CF16CD1ACB1EC922C732C1B6DE9A
:10315000BADCBEDAC2D8C6D6F2D4F6D2FAD0FECEE7
:1031600082E686E48AE28EE012FE16FC1AFA1EF867
:103170002AF62EF432F236F03AEE3EEC42EA46E817
:103180003754004072E676E47AE27EE0EF30A05AEF
:1031900093055052130504C0EF20806519C59305AF
:1031A0005052130504C0EF206068EF30A05B3A4432
:1031B000FA40EA425A43CA432A459A450A46F65615
:1031C0006657D6574658B658265E965E065FF64F47
:1031D0003660A660166186617272E2725273C273C3
:1031E0003275A275127682767267E2675268C2689B
:1031F000326EA26E126F826F0D6173002030757196
:10320000AADEAEDC06C716C51AC31EC1B2DAB6D82E
:10321000BAD6BED4C2D2C6D0F2CEF6CCFACAFEC856
:1032200082E686E48AE28EE012FE16FC1AFA1EF8A6
:103230002AF62EF432F236F03AEE3EEC42EA46E856
:1032400072E676E47AE27EE0EF30E04E930550528B
:1032500037550040EF20C05909C9EFF0CFD893058A
:10326000505237550040EF20605CEF30A04FBA401D
:10327000AA421A438A437655E6555656C6563657DD
:10328000A65716588658764EE64E564FC64F3660AD
:10329000A660166186617272E2725273C2733275F1
:1032A000A275127682767267E2675268C268326EE1
:1032B000A26E126F826F49617300203035712AC58A
:1032C0002EC306CF16CD1ACB1EC922C732C1B6DE19
:1032D000BADCBEDAC2D8C6D6F2D4F6D2FAD0FECE66
:1032E00082E686E48AE28EE012FE16FC1AFA1EF8E6
:1032F0002AF62EF432F236F03AEE3EEC42EA46E896
:103300003724004072E676E47AE27EE0EF30A042B5
:1033100093055052130504C0EF20804D19C5930545
:103320005052130504C0EF206050EF30A0433A44E0
:10333000FA40EA425A43CA432A459A450A46F65693
:103340006657D6574658B658265E965E065FF64FC5
:103350003660A660166186617272E2725273C27341
:103360003275A275127682767267E2675268C26819
:10337000326EA26E126F826F0D6173002030357154
:10338000BEDA06CF16CD1ACB1EC922C72AC52EC358
:1033900032C1B6DEBADCC2D8C6D6F2D4F6D2FAD082
:1033A000FECE82E686E48AE28EE012FE16FC1AFA6F
:1033B0001EF82AF62EF432F236F03AEE3EEC42EAED
:1033C00046E83704055072E676E47AE27EE0EF30B4
:1033D00080361C28918B89CB03A58188EF20D06F84
:1033E0001C2893F7B70F1CA8EF30C0373A44FA40B7
:1033F000EA425A43CA432A459A450A46F656665750
:10340000D6574658B658265E965E065FF64F36602B
:10341000A660166186617272E2725273C27332756F
:10342000A275127682767267E2675268C268326E5F
:10343000A26E126F826F0D61730020307571BED461
:1034400006C716C51AC31EC1AADEAEDCB2DAB6D8EC
:10345000BAD6C2D2C6D0F2CEF6CCFACAFEC882E63E
:1034600086E48AE28EE012FE16FC1AFA1EF82AF6AC
:103470002EF432F236F03AEE3EEC42EA46E872E6DC
:1034800076E47AE27EE0EF30002B1145EF10D02198
:1034900085476315F5001145EF10F022EF30802CC1
:1034A000BA40AA421A438A437655E6555656C6563E
:1034B0003657A65716588658764EE64E564FC64F84
:1034C0003660A660166186617272E2725273C273D0
:1034D0003275A275127682767267E2675268C268A8
:1034E000326EA26E126F826F496173002030757167
:1034F000BED406C716C51AC31EC1AADEAEDCB2DA38
:10350000B6D8BAD6C2D2C6D0F2CEF6CCFACAFEC867
:1035100082E686E48AE28EE012FE16FC1AFA1EF8B3
:103520002AF62EF432F236F03AEE3EEC42EA46E863
:1035300072E676E47AE27EE0EF30E01F2145EF109C
:10354000B01685476315F5002145EF10D017EF3011
:103550006021BA40AA421A438A437655E655565628
:10356000C6563657A65716588658764EE64E564FCC
:10357000C64F3660A660166186617272E27252733F
:10358000C2733275A275127682767267E2675268EC
:10359000C268326EA26E126F826F49617300203072
:1035A0007571BED406C716C51AC31EC1AADEAEDC2D
:1035B000B2DAB6D8BAD6C2D2C6D0F2CEF6CCFACAF1
:1035C000FEC882E686E48AE28EE012FE16FC1AFA53
:1035D0001EF82AF62EF432F236F03AEE3EEC42EACB
:1035E00046E872E676E47AE27EE0EF30C014130536
:1035F0000002EF10700B85476316F50013050002FB
:10360000EF10700C13050004EF10100A85476316C5
:10361000F50013050004EF10100B13050008EF1060
:10362000B00885476316F50013050008EF10B009D0
:1036300013050010EF10500785476316F5001305BA
:103640000010EF10500813050020EF10F00585471B
:103650006316F50013050020EF10F006EF30801020
:10366000BA40AA421A438A437655E6555656C6567C
:103670003657A65716588658764EE64E564FC64FC2
:103680003660A660166186617272E2725273C2730E
:103690003275A275127682767267E2675268C268E6
:1036A000326EA26E126F826F4961730020307571A5
:1036B000BED406C716C51AC31EC1AADEAEDCB2DA76
:1036C000B6D8BAD6C2D2C6D0F2CEF6CCFACAFEC8A6
:1036D00082E686E48AE28EE012FE16FC1AFA1EF8F2
:1036E0002AF62EF432F236F03AEE3EEC42EA46E8A2
:1036F00072E676E47AE27EE0EF30E0030545EF1013
:10370000A07A85476314F500EF10E07BEF30800569
:10371000BA40AA421A438A437655E6555656C656CB
:103720003657A65716588658764EE64E564FC64F11
:103730003660A660166186617272E2725273C2735D
:103740003275A275127682767267E2675268C26835
:10375000326EA26E126F826F4961730020307571F4
:10376000BED406C716C51AC31EC1AADEAEDCB2DAC5
:10377000B6D8BAD6C2D2C6D0F2CEF6CCFACAFEC8F5
:1037800082E686E48AE28EE012FE16FC1AFA1EF841
:103790002AF62EF432F236F03AEE3EEC42EA46E8F1
:1037A00072E676E47AE27EE0EF20F0780945EF10E9
:1037B000A06F85476315F5000945EF10C070EF2035
:1037C000707ABA40AA421A438A437655E65556564D
:1037D000C6563657A65716588658764EE64E564F5A
:1037E000C64F3660A660166186617272E2725273CD
:1037F000C2733275A275127682767267E26752687A
:10380000C268326EA26E126F826F496173002030FF
:103810007571BED406C716C51AC31EC1AADEAEDCBA
:10382000B2DAB6D8BAD6C2D2C6D0F2CEF6CCFACA7E
:10383000FEC882E686E48AE28EE012FE16FC1AFAE0
:103840001EF82AF62EF432F236F03AEE3EEC42EA58
:1038500046E872E676E47AE27EE0EF20D06D4145FC
:10386000EF10806485476315F5004145EF10A065B2
:10387000EF20506FBA40AA421A438A437655E65564
:103880005656C6563657A65716588658764EE64EA2
:10389000564FC64F3660A660166186617272E2723C
:1038A0005273C2733275A275127682767267E267BE
:1038B0005268C268326EA26E126F826F49617300E5
:1038C00020303571BEDA06CF16CD1ACB1EC92AC5F7
:1038D0002EC332C1B6DEBADCC2D8C6D6F2D4F6D216
:1038E000FAD0FECE82E686E48AE28EE012FE16FC74
:1038F0001AFA1EF82AF62EF432F236F03AEE3EECC0
:1039000042EA22C746E872E676E47AE27EE0EF20F9
:10391000906213050040EF10205985476316F500AB
:1039200013050040EF10205A056413050480EF10C2
:10393000A05785476316F50013050480EF10A058C3
:103940000565EF10605685476315F5000565EF10B6
:1039500080570965EF10405585476315F5000965E7
:10396000EF1060561165EF10205485476315F50080
:103970001165EF1040552165EF1000538547631521
:10398000F5002165EF102054EF20D05D3A44FA4055
:10399000EA425A43CA432A459A450A46F6566657AA
:1039A000D6574658B658265E965E065FF64F366086
:1039B000A660166186617272E2725273C2733275CA
:1039C000A275127682767267E2675268C268326EBA
:1039D000A26E126F826F0D617300203035712AC59F
:1039E0002EC306CF16CD1ACB1EC922C732C1B6DEF2
:1039F000BADCBEDAC2D8C6D6F2D4F6D2FAD0FECE3F
:103A000082E686E48AE28EE012FE16FC1AFA1EF8BE
:103A10002AF62EF432F236F03AEE3EEC42EA46E86E
:103A20003734014072E676E47AE27EE0EF20B0506F
:103A30008545130504C0EF10D04711C58545130512
:103A400004C0EF109048EF20F0513A44FA40EA42A7
:103A50005A43CA432A459A450A46F6566657D657E8
:103A60004658B658265E965E065FF64F3660A660EC
:103A7000166186617272E2725273C2733275A275F8
:103A8000127682767267E2675268C268326EA26E00
:103A9000126F826F0D61730020307571AADEAEDC8B
:103AA00006C716C51AC31EC1B2DAB6D8BAD6BED476
:103AB000C2D2C6D0F2CEF6CCFACAFEC882E686E4FE
:103AC0008AE28EE012FE16FC1AFA1EF82AF62EF48E
:103AD00032F236F03AEE3EEC42EA46E872E676E43E
:103AE0007AE27EE0EF203045854537050040EF1053
:103AF000503C11C5854537050040EF10103DEF20C3
:103B00007046BA40AA421A438A437655E65556563D
:103B1000C6563657A65716588658764EE64E564F16
:103B2000C64F3660A660166186617272E272527389
:103B3000C2733275A275127682767267E267526836
:103B4000C268326EA26E126F826F496173002030BC
:103B500035712AC52EC306CF16CD1ACB1EC922C772
:103B600032C1B6DEBADCBEDAC2D8C6D6F2D4F6D2DC
:103B7000FAD0FECE82E686E48AE28EE012FE16FCE1
:103B80001AFA1EF82AF62EF432F236F03AEE3EEC2D
:103B900042EA46E83704004072E676E47AE27EE0E4
:103BA000EF207039854513050440EF10903011C5A2
:103BB000854513050440EF105031EF20B03A3A44E8
:103BC000FA40EA425A43CA432A459A450A46F656FB
:103BD0006657D6574658B658265E965E065FF64F2D
:103BE0003660A660166186617272E2725273C273A9
:103BF0003275A275127682767267E2675268C26881
:103C0000326EA26E126F826F0D61730020303571BB
:103C10002AC52EC306CF16CD1ACB1EC922C732C164
:103C2000B6DEBADCBEDAC2D8C6D6F2D4F6D2FAD044
:103C3000FECE82E686E48AE28EE012FE16FC1AFAD6
:103C40001EF82AF62EF432F236F03AEE3EEC42EA54
:103C500046E83714004072E676E47AE27EE0EF2030
:103C6000902D854513050480EF10B02411C58545BE
:103C700013050480EF107025EF20D02E3A44FA404F
:103C8000EA425A43CA432A459A450A46F6566657B7
:103C9000D6574658B658265E965E065FF64F366093
:103CA000A660166186617272E2725273C2733275D7
:103CB000A275127682767267E2675268C268326EC7
:103CC000A26E126F826F0D617300203035712AC5AC
:103CD0002EC306CF16CD1ACB1EC922C732C1B6DEFF
:103CE000BADCBEDAC2D8C6D6F2D4F6D2FAD0FECE4C
:103CF00082E686E48AE28EE012FE16FC1AFA1EF8CC
:103D00002AF62EF432F236F03AEE3EEC42EA46E87B
:103D10003714004072E676E47AE27EE0EF20B021CC
:103D20008545130504C0EF10D01811C5854513054E
:103D300004C0EF109019EF20F0223A44FA40EA4212
:103D40005A43CA432A459A450A46F6566657D657F5
:103D50004658B658265E965E065FF64F3660A660F9
:103D6000166186617272E2725273C2733275A27505
:103D7000127682767267E2675268C268326EA26E0D
:103D8000126F826F0D61730020307571AADEAEDC98
:103D900006C716C51AC31EC1B2DAB6D8BAD6BED483
:103DA000C2D2C6D0F2CEF6CCFACAFEC882E686E40B
:103DB0008AE28EE012FE16FC1AFA1EF82AF62EF49B
:103DC00032F236F03AEE3EEC42EA46E872E676E44B
:103DD0007AE27EE0EF203016854537150040EF107F
:103DE000500D11C5854537150040EF10100EEF201E
:103DF0007017BA40AA421A438A437655E65556567A
:103E0000C6563657A65716588658764EE64E564F23
:103E1000C64F3660A660166186617272E272527396
:103E2000C2733275A275127682767267E267526843
:103E3000C268326EA26E126F826F496173002030C9
:103E400035712AC52EC306CF16CD1ACB1EC922C77F
:103E500032C1B6DEBADCBEDAC2D8C6D6F2D4F6D2E9
:103E6000FAD0FECE82E686E48AE28EE012FE16FCEE
:103E70001AFA1EF82AF62EF432F236F03AEE3EEC3A
:103E800042EA46E83714004072E676E47AE27EE0E1
:103E9000EF20700A854513050440EF10900111C50D
:103EA000854513050440EF105002EF20B00B3A4453
:103EB000FA40EA425A43CA432A459A450A46F65608
:103EC0006657D6574658B658265E965E065FF64F3A
:103ED0003660A660166186617272E2725273C273B6
:103EE0003275A275127682767267E2675268C2688E
:103EF000326EA26E126F826F0D61730020303571C9
:103F00002AC52EC306CF16CD1ACB1EC922C732C171
:103F1000B6DEBADCBEDAC2D8C6D6F2D4F6D2FAD051
:103F2000FECE82E686E48AE28EE012FE16FC1AFAE3
:103F30001EF82AF62EF432F236F03AEE3EEC42EA61
:103F400046E83734014072E676E47AE27EE0EF201C
:103F5000807E854513050440EF10A07511C5854589
:103F600013050440EF106076EF20C07F3A44FA401A
:103F7000EA425A43CA432A459A450A46F6566657C4
:103F8000D6574658B658265E965E065FF64F3660A0
:103F9000A660166186617272E2725273C2733275E4
:103FA000A275127682767267E2675268C268326ED4
:103FB000A26E126F826F0D617300203035712AC5B9
:103FC0002EC306CF16CD1ACB1EC922C732C1B6DE0C
:103FD000BADCBEDAC2D8C6D6F2D4F6D2FAD0FECE59
:103FE00082E686E48AE28EE012FE16FC1AFA1EF8D9
:103FF0002AF62EF432F236F03AEE3EEC42EA46E889
:104000003754014072E676E47AE27EE0EF20A07257
:104010008545130504C0EF10C06911C5854513051A
:1040200004C0EF10806AEF20E0733A44FA40EA429D
:104030005A43CA432A459A450A46F6566657D65702
:104040004658B658265E965E065FF64F3660A66006
:10405000166186617272E2725273C2733275A27512
:10406000127682767267E2675268C268326EA26E1A
:10407000126F826F0D61730020307571AADEAEDCA5
:1040800006C716C51AC31EC1B2DAB6D8BAD6BED490
:10409000C2D2C6D0F2CEF6CCFACAFEC882E686E418
:1040A0008AE28EE012FE16FC1AFA1EF82AF62EF4A8
:1040B00032F236F03AEE3EEC42EA46E872E676E458
:1040C0007AE27EE0EF202067854537550140EF100A
:1040D000405E11C5854537550140EF10005FEF2068
:1040E0006068BA40AA421A438A437655E655565646
:1040F000C6563657A65716588658764EE64E564F31
:10410000C64F3660A660166186617272E2725273A3
:10411000C2733275A275127682767267E267526850
:10412000C268326EA26E126F826F496173002030D6
:10413000757106C716C51AC31EC1AEDCB2DAB6D891
:10414000BAD6BED4C2D2C6D0F2CEF6CCFACAFEC817
:1041500082E686E48AE28EE012FE16FC1AFA1EF867
:104160002AF62EF432F236F03AEE3EEC42EA46E817
:10417000AADE72E676E47AE27EE0EF20C05B377575
:1041800001001305851FEF209041EF20A05DBA408C
:10419000AA421A438A437655E6555656C6563657AE
:1041A000A65716588658764EE64E564FC64F36607E
:1041B000A660166186617272E2725273C2733275C2
:1041C000A275127682767267E2675268C268326EB2
:1041D000A26E126F826F496173002030757106C73D
:1041E00016C51AC31EC1AEDCB2DAB6D8BAD6BED472
:1041F000C2D2C6D0F2CEF6CCFACAFEC882E686E4B7
:104200008AE28EE012FE16FC1AFA1EF82AF62EF446
:1042100032F236F03AEE3EEC42EA46E8AADE72E6C8
:1042200076E47AE27EE0EF20005137750100130555
:10423000C51EEF20D036EF20E052BA40AA421A4302
:104240008A437655E6555656C6563657A6571658DB
:104250008658764EE64E564FC64F3660A6601661BB
:1042600086617272E2725273C2733275A2751276EF
:1042700082767267E2675268C268326EA26E126F0F
:10428000826F4961730020308280EFC2CF9637750C
:1042900001000546814513058521EF10307923A4DF
:1042A000A18837750100854513058522EF20E006BA
:1042B00023A2A188B755000037750100D1470547F3
:1042C000930600200146938505A013050523EF30D2
:1042D000A02F19C1EF306048B755000037750100B5
:1042E000D14705479306002001469385459913055C
:1042F0004523EF30602D19C1EF302046B75500003F
:1043000037750100D1470947930600200146938580
:1043100025951305C523EF30202B19C1EF30E0435D
:104320000564B75400203747002037460000B775B2
:10433000010095480548930704801307071F81462D
:1043400013068628938545241385049FEF30202487
:104350001385049FEF306040B7540020375700208A
:1043600037460000B7750100D1480548930704801F
:10437000130707A881461306266E938545251385E6
:104380000428EF30C02013850428EF30003DB764C7
:1043900000203757002037460000B7750100D1488C
:1043A0001548930704801307073181461306A66357
:1043B00093850526138504B1EF30601D138504B184
:1043C000EF30A039B764002037670020374600007F
:1043D000B7750100130707BA81461306865E9385F9
:1043E000C526D1482148930704801385043AEF304D
:1043F000001A1385043AEF304036B7450000377590
:104400000100094795460146938505461305452752
:10441000EF30403E19C1EF308041B745000037759D
:1044200001000947A946014693850544130505285F
:10443000EF30403C19C1EF30803F01456FB0FFFDC8
:10444000EFB27FFB85451305F004EFC06FCBEF8023
:10445000F06281451305F004EFC08FCA6FB0FFFB17
:10446000EFB2FFF685451305F004EFC06FC90145B3
:10447000EFC08FB01389C1873305A0402310A90076
:104480001D45EFC06FAF138441870AA00145EFC0FF
:104490004FB21D45EFC0EFB103140400B77A01001D
:1044A000537504D093848187377A0100EF10915FB0
:1044B00003A68A2083A6CA20EF00F11B88602A8BFE
:1044C000AE8BEF10315E03260A2183264A21EF00CE
:1044D000911A2A86AE865A85DE85EFF08063EF104A
:1044E000F16A8319090088E053F509D0138901881E
:1044F0004E94EF10315B03A68A2083A6CA20EF00FA
:104500009117072509002A8BAE8BEF10B1590326AE
:104510000A2183264A21EF0011162A86AE865A8583
:10452000DE85EFF0005FEF10716609473344E40267
:1045300003A701A137150020130545032720A90073
:104540003A9423A881A0EF90C002072509003719EB
:104550000020130509FFEF90A01488603714002095
:10456000130584FCEF90C013130909FF8727490046
:10457000856793874719D39507C063CFB704FD7745
:104580009387C7E663D3F500BE8585679387873831
:10459000BE9513051031EFC05F8D130484FC5C6081
:1045A000856793874719D39507C063CBB702FD771B
:1045B0009387C7E663D3F500BE8585679387873801
:1045C000BE9513053031EFC05F8A81451305F004B5
:1045D000EFC00FB36FB03FE389659385C55155BFF9
:1045E00089659385C551F1BFEFB25FDF3794002035
:1045F000B714002037E9002013044414938444EBDB
:10460000130A09F9B77901005830C1476317F70059
:104610003C208E07A697DC43829703C7419583D63B
:1046200081A9034609F983454A0013854930EFE023
:10463000505A5145EF30E00BC1BFEFB23FDA37942B
:104640000020B714002037190020930A80041304B7
:1046500044149384440A03A58188FD55EF10903FCC
:1046600085451305E004EFC0AFA9EF808047EFB0A8
:10467000905E07A5019D13058901EF90A0069307A1
:104680008901DC6393051038D39707C063CBFA0028
:10469000BE85930780FB63D4F500930580FB93856B
:1046A00095330145EFC06FFC5830C5476314F700E0
:1046B000EF80F03903C744028546930707FE93F75E
:1046C000F70F63F5F600E9476317F70003A5418884
:1046D000A145EF10B04681451305E004EFC04FA29D
:1046E0009DBFEFB2BFCF0111B7740100B7770100D2
:1046F000B779010022EE26EC4AEA07A4092F07A9A0
:10470000872F87A404AC03A541887800FD56054691
:104710008565EF10B04B1384418875F537EA0020AA
:1047200003470AF99D476319F70C3777010087277C
:10473000472FB71700201305802527AEF702EF207B
:10474000507B084093050040EF10503F13050019BF
:10475000EF20307A23080AF803C7B1A98547631D03
:10476000F70283D681A9B717002087A70709D39737
:1047700007C063D4F61C83C701A9850793F7F70F19
:104780002388F1A809476379F700930530060545AA
:10479000EFD00FB7A38D01A807A704AC87A70188A6
:1047A00037970020D397E7A081CFB717002087A7BE
:1047B00047FFB777010007A70730D317F7A08DE7AA
:1047C00007A704AC87A78187D397E7A0638A07165A
:1047D000B717002087A7C7FCB777010007A70730E6
:1047E000D317F7A0638E07148947230CF7120840EC
:1047F0009145EF10B03491AAB71A0020938A4A0A63
:1048000083C78A0195466385D7003947639BE702D2
:104810000840B7170020780081461546A14527AE0D
:104820002703EF10B03A1305401FEF20906C0840AB
:1048300093050040EF1090301305C012EF20706B0D
:1048400021BF03CB419585476311FB06B777010074
:1048500087A7C72F0840371A00207800130A4A0399
:10486000FD561546A1452724FA00EF10303603C740
:104870004A02E9476310F70287278A01A38D61A9DD
:104880002722FA00084093050040EF10302B130553
:1048900040066DB7B7170020938747089C67DCE395
:1048A00087278A012722FA00F1BF3717002083D714
:1048B00081A913074708631DDB005C6F539707C08E
:1048C000E3DCE7E8930540060545EFD06FA369B543
:1048D000D3F717D05863B717002093864703D3F751
:1048E000E708530700F0D46293874703D316F7A075
:1048F0001CEF8DC6186BD3F7E71007A7092F539746
:10490000E7A011EB07A704AC5317F7A009E7D3F70B
:10491000D7009CE791B5D307E720D5BF586BD3F7F5
:10492000E710539787A019E75397F4A06DD3D38767
:104930009420F1BFD3078420D9BF238801A8A9BD43
:10494000034787138947E304F7EA1545EF20705AB8
:104950005DBBEFB25FAA371400204111130444037A
:1049600003A541887800FD56154693050040EF10D9
:10497000F0257DF51C645860D397E7A0F5D3294551
:10498000EF20F0571C64D39707C08907D3F707D0EF
:104990001CE4CDB7EFB29FA437190020B714002054
:1049A00037140020411113094903938404FF1304B1
:1049B00084FC379A0020894A9389418803A509001D
:1049C0007800FD5615469145EF10502075F503A56A
:1049D00009007800814615468565EF10301F914526
:1049E0000545EFD0EF911305400B23240900EF207C
:1049F000105123A4040023240400230C5A136DBF78
:104A0000EFB27F9F3714002041111304440303A524
:104A100041887800FD5615468945EF10301B1389F3
:104A2000418875F51C645860D397E7A099E7032582
:104A300009008565EF109010D9BF2945EF20304C53
:104A40001C64D39707C08907D3F707D01CE4D9BFEC
:104A5000EFB27F9AEFD09F8A6165130770089306C3
:104A6000F00601468145130585F8EF500040930696
:104A700000310146854513051008EFB0FFEC9306A1
:104A80000031014685451305E004EFB0FFEB9306C6
:104A90000031014685451305F004EFB0FFEA9306A7
:104AA00080040146814513052008EFB0FFE9930615
:104AB00080040146814513053008EFB0FFE89306F6
:104AC00080040146814513054008EFB0FFE79306D7
:104AD00080040146814513055008EFB0FFE69306B8
:104AE00080040146814513056008EFB0FFE5930699
:104AF0008004014681451305D004EFB0FFE437760A
:104B0000010013064628814513058007EFD0EFCA40
:104B1000814513051008EFB0BFDE2945EFB0DFA7D0
:104B20002D45EFB07FA73145EFB01FA73545EFB05A
:104B3000BFA693060031054685451305C006EFB0B4
:104B4000BFE093060031054685451305E006EFB04A
:104B5000BFDF8564116413868438930584261305AA
:104B60001031EFC06FB31386843893058426130584
:104B70003031EFC06FB23776010013064629BD45CC
:104B800013058007EFD06FC31306B0089305901884
:104B90000145EFB03FC39D6513067004938565041E
:104BA0001D45EFB03FC2377601001306462AF9458E
:104BB00013058007EFD06FC0EFD0DFC725E9377648
:104BC00001001306062B9305B00413058007EFD0F0
:104BD000CFBEEFD07F9F25E1377601001306C62CAC
:104BE0009305C00313058007EFD02FBDF165930631
:104BF000500713064007938505201945EFC0DFFBDA
:104C000085451945EFC09FF3377601001306862EC0
:104C10009305D00213058007EFD02FBA8145130505
:104C20001008EFB0FFCD01456FB02FFF37760100C0
:104C30001306C62B49BF377601001306862D4DB7E4
:104C4000EFB26FFBEF703068EF50403BEFC0400CAD
:104C5000130720F8A38AE182B7B700203717002096
:104C6000938707382328F70401456FB00FFB01A095
:104C700001A001A001A001A001A001A001A001A02C
:104C800001A001A001A001A001A001A001A001A01C
:104C900001A001A001A001A001A001A001A001A00C
:104CA00001A001A001A001A001A001A001A001A0FC
:104CB00001A001A001A001A001A001A001A001A0EC
:104CC00001A001A001A001A001A001A001A001A0DC
:104CD00001A001A001A001A001A001A001A001A0CC
:104CE00001A001A001A001A001A001A001A001A0BC
:104CF00001A001A001A001A001A001A001A001A0AC
:104D000001A001A001A001A001A001A001A001A09B
:104D100001A001A001A001A001A001A001A001A08B
:104D200001A001A001A001A001A001A07390123474
:104D300097D1FF1F938101DB17B100201301812C54
:104D400017B501001305855597B5FF1F9385852B72
:104D50001386818463FAC5008322050023A05500D1
:104D600011059105E3EAC5FE13858184979500201E
:104D7000938585236377B500232005001105E36D36
:104D8000B5FEFD42739002BCFD4273104080B782B5
:104D900000009382828873A0023097B2FFFF938253
:104DA000E22993E2320073905230B7479508138599
:104DB0000740EFD0DFBE971200009382A2307390BD
:104DC000123473002030EFB20FE3B727014093870E
:104DD0000740631CF500854513050020D52E81454D
:104DE00013050020F5266FB04FE3B73701409387D6
:104DF0000780E31AF5FE854513050040D12E814555
:104E000013050040C5B75C413707F1E01307F7EF22
:104E1000944D7D8F9C41D58FD44DD58FD441A20622
:104E2000D58FD98F5CC11C4537F7F1FF1307D77FAA
:104E3000D4457D8F9C49D58F94458606D58FD98FD3
:104E40001CC55C55370710FF7D177D8FDC29FD17CA
:104E500093F7F70FD207D98F5CD582801C4589C59F
:104E600093E717001CC58280F99BEDBF1C4593E7B3
:104E700087001CC5828008450D81058982801C45FC
:104E800093E747001CC58280084509810589828017
:104E90005C4191C537070004D98F5CC18280370718
:104EA00000FC7D17F98FD5BFB70701401387074076
:104EB00083A70740584B698F09C77D8D3335A00004
:104EC000828001458280B707014023AAA7408280E3
:104ED0009C4513F7070113F8F70001C7D841336861
:104EE000E8008E2113F7F50F39C318418146854E2E
:104EF0003D4F930F800293028004214E3396DE00D3
:104F0000B3F8C500631116039398260033131F01ED
:104F10001343F3FF3377E300B318180133E7E800D6
:104F2000639FF70550C98506E39AC6FD18C11307AC
:104F3000F00F6375B70454412146854E3D4F930FE2
:104F4000800293028004414EB398CE0033F71501DE
:104F50006392E8021317260001173313EF0013437F
:104F6000F3FFB376D3003317E800D98E639DF701C2
:104F7000232A15010506E319C6FD54C18280E39476
:104F800057FA10C94DB7E39757FE23281501DDB72F
:104F900019C20CC982804CC98280B707014063578F
:104FA0000504DC4F135705019376F700131605012E
:104FB0003707300041823378E500635C05046319EC
:104FC000E802138706018D46B396E60093C6F6FF06
:104FD000F58F89C91357550112073317E600D98F8A
:104FE00063570504370701405CCF8280DC435DBF17
:104FF0001317B500635607000D47B316D700F9B76E
:105000001357550112073317E6001347F7FFF98FBF
:10501000C9B76312E8023708014083264800370702
:1050200000F17D17F98F758F2322E800C5F537074A
:1050300001405CC382801317B500635C07000D4715
:105040003317D7001347F7FF7D8FB707000FD98FAE
:10505000F1BF1357550112073317E600E5B7B7162E
:105060000240DC4251777D17F98F5D8DC8C2828086
:10507000371702405C439146B18B6385D700A14648
:105080006382D706B7177A00938707201CC13716AB
:1050900002405C4237070020130787059183BD8BD0
:1050A000BA9794231C41B3D7D7005CC15442A18264
:1050B0009D8ABA969422B3D6D70014C55442AD82C5
:1050C0009D8A36971823B3D7E7005CC558423983C9
:1050D000937637001387C18036971823B3D7E7023A
:1050E0001CC982805C4354434167C983F98E37F7FA
:1050F000FF1F0327C770BD8B89071316170163486D
:105100000600454601476392C702C94739A80947C7
:105110006389E7023D476388E70241476388E70206
:10512000454601476393C700C14785E6B74602403D
:1051300083A60680C18A8DC6B7167A00938606209C
:1051400025A00147D9B70547B547C5B70147BD47B2
:10515000E9BFB7160240D4421396E600E35E06FCB0
:10516000B7163D0093860690B387D7021CC105D3BE
:105170001C41858321BF99C5371702405C4B5D8D6B
:1051800048CB8280B7170240D84B1345F5FF798D85
:10519000C8CB828099C5371702401C4F5D8D08CF60
:1051A0008280B7170240984F1345F5FF798D88CF5D
:1051B000828099C5371702405C4F5D8D48CF828051
:1051C000B7170240D84F1345F5FF798DC8CF8280BD
:1051D00099C5371702405C475D8D48C78280B71775
:1051E0000240D8471345F5FF798DC8C7828099C51D
:1051F000371702401C4B5D8D08CB8280B7170240E9
:10520000984B1345F5FF798D88CB8280EFB2AF9E26
:10521000B7370140631CF50085450565EFF05FFB7E
:1052200081450565EFF0DFFA6FB02F9FB74700406B
:1052300013870780631BE50085451165EFF03FFB91
:1052400081451165EFF0BFFAC5B7938707C0E31D2D
:10525000F5FC85452165EFF09FF981452165DDB7B6
:105260001A218D6793870704B6217D8F9E21D58FE4
:10527000D621D58FF621D58F9625D58FB625D58FFA
:10528000D625D58FF625D58FD98F1EA15A2DFD771E
:105290009387F77FF98F5EAD9E291EA982801E211C
:1052A00089C593E707041EA18280C207C18393F7D3
:1052B000F7FBC207C183C5BF1E21373701409306E4
:1052C00007C0C207C1836300D504B7060040630C62
:1052D000D502938606406308D502B71600401386B0
:1052E00006806302C502938606C0630ED5001307CD
:1052F0000740630AE50037570140930607C063047F
:10530000D5006316E500BA2193F7F7F8D98F371760
:105310000040630CE500130707406308E50093F7BE
:10532000F7CFFA21C207C183D98F1EA1DE215EB556
:105330009E211EB5B7370140138707C0630EE500F5
:1053400093870740630AF500B7570140138707C0EA
:105350006304E5006314F5009C251EB985475EA92A
:1053600082801E31922103D82500C207C183F99B98
:10537000C207C1831EB11E3156211A2DC207C18337
:10538000420741831377C7F8518F9225F59BC206D8
:1053900033660601D18F37360140130806C0C1823B
:1053A000630E050113060640630AC5003756014027
:1053B000130806C0630405016310C502B225DD9B16
:1053C00003D8E500D18FD221ED9B93F6F6CFD18F94
:1053D000D22533660601D18E56A11AADFA215AB9EB
:1053E0001EB182801E3165771307F7CFC207C183D4
:1053F000BD9BC207C1831EB11E31562103D8850053
:10540000C20713960601162DC18393F7F7FD758F1A
:1054100096214182A206558FB62142074183B3E609
:1054200006019206D58FB7360140C207138806C021
:10543000C183630E050193860640630AD500B75603
:105440000140138806C063040501631ED502B6251A
:1054500093F7F7F703D8C5009206D58FD621C20778
:10546000C183920693F7F7FBD58FFD769386F63FBF
:10547000F18EF225C207C183336606010A06D18E7A
:1054800013960601418252A11AADFA211ABD1EB12E
:1054900082801E3103D88500C207C18393F7F7EFDE
:1054A000C207C1831EB11E3156215A2DC207139661
:1054B00006014207962141831377C7F8558FB6211D
:1054C000C18393F7F7DFB3E60601A206D58FB7369F
:1054D0000140C207138806C04182C183630E0501E3
:1054E00093860640630AD500B7560140138806C06C
:1054F00063040501631FD502FD769386F67FF58F61
:10550000B62503D8C500A206D58FD621C207C18310
:10551000A20693F7F7BFD58FF576FD16F18EF2252B
:10552000C207C183336606011206D18E13960601A7
:10553000418252A15AADFA215ABD1EB182801A3160
:10554000FD77FD17F98F1EB10358050256215E2D18
:1055500065771396060196211307F7CF7D8FF977AC
:10556000A206FD17558FB3F70701B62103D88500B2
:1055700042074182B3E60601B206D58FB736014035
:10558000C207138806C04183C183630E0501938659
:105590000640630AD500B7560140138806C063046D
:1055A0000501631BD500F176FD16F18ED2251A0692
:1055B000D18E13960601418252A15AADFA212310D1
:1055C000E5041EB18280FD575EA123100500231360
:1055D0000500231105002304050082801E2189C5D2
:1055E00093E717001EA18280C207C183F99BC207FF
:1055F000C183CDBF8357450491C52167D98F23123D
:10560000F5048280C607C583DDBF1E25C207C1839E
:1056100093F7F7F8DD8D0EA51E2593E777001EA5FD
:1056200082801E2DC207C183DD9BDD8D0EAD828081
:105630001A2DFD779387F77FF98FA205CD8FC207CB
:10564000C1831EAD82805E2DC207C183DD9BDD8DCF
:105650004EAD82805A2DFD779387F77FF98FA20593
:10566000CD8FC207C1835EAD82801E2DC207C1836C
:10567000ED9BDD8D0EAD82801E2DA205C207C1837C
:1056800093F7F7BFCD8FC207C1831EAD82805E2D19
:10569000C207C183ED9BDD8D4EAD82805E2DA205DC
:1056A000C207C18393F7F7BFCD8FC207C1835EAD39
:1056B00082801E294A25ED8F4205418189C76D8D63
:1056C0003335A00082800145828093C5F5FFC20575
:1056D000C1810EA98280EFA21FD21629F577FD178E
:1056E000F58FF621DA257971D58F1EA95625FD771C
:1056F0009387379FF58FD6212A842EC6D58F96257E
:10570000D58FB625D58F5EA55E29C207C18393F7D5
:10571000F7CFD98F5EA96808EFF09F95B747014092
:1057200093870780B245631AF404A257562465474D
:10573000B387E702C206C186984163D20604060712
:1057400052244206B3D7E702130740064186B3D678
:10575000E702B3F7E7029206635506028E079387C6
:105760002703B3D7E70213F77700B367D700C20761
:10577000C1831EA445616FA05FCA925745BF0A0747
:10578000C1B7920793872703B3D7E702BD8BD58FA5
:10579000F9BF91C55E250967D98F5EA582805A251C
:1057A000F977FD17F98FD5BF13F7F50F85471583E7
:1057B000B395B7006319F7009307C500984301CE6E
:1057C000D98D8CC38280894693074501E318D7FEA3
:1057D00093070501E5B793C5F5FFF98DDDB793F59F
:1057E000F51F4EA182800A216D8D3335A000828085
:1057F00013F7F50F85461583B397B6006311D702EB
:105800005A25F98F1A2101454207418381CB05456D
:10581000A181B315B5006D8F3335E00082808946D4
:105820006314D7001A29F1BF5A29E1BFA181854726
:10583000B397B70093C7F7FFC207C1831EA1828049
:10584000B7070050CABB03C767031377C70F238B83
:10585000E7028280B70700508ABF03C7A703137708
:10586000C70F238DE7028280EFA2FFB8814713F7AD
:10587000F70F6366A700EFF0BFFC6FA01FBA03A786
:10588000818A3E971423850793C6F6FF2300D70429
:10589000F9BFEFA25FB6814713F7F70F6366A70062
:1058A000EFF05FFB6FA07FB703A7C18A3E97142379
:1058B000850793C6F6FF2300D704F9BF717136C57B
:1058C0003AC33EC106D716D51AD31ED122CF26CD54
:1058D0002ACB2EC932C7C2DEC6DCCADACED8D2D6AF
:1058E000D6D4F2D2F6D0FACEFECC82E686E48AE2B4
:1058F0008EE012FE16FC1AFA1EF82AF62EF432F288
:10590000B707005036F03AEE3EEC42EA46E872E65F
:1059100076E47AE27EE0F8231377F70F9376270098
:1059200063880664F833930600021377070363065F
:10593000D74C130600036300C70463160720F8332F
:1059400005461377F7036304C76063090758894660
:10595000631BD71EF833137707046306071E03C7BC
:10596000B70313474700A38DE7028A271375F50F86
:10597000EFF03FF2C9AA19472389E7021147A3892B
:10598000E70203A9418A8347790003476900A20718
:10599000D98F1387A1891EA3034719009387818993
:1059A00098A3034A09001384A18913770A0661CFDB
:1059B00098231377070211CF9C231307100293F744
:1059C000F70F638AE700130720026384E7006395FB
:1059D000D71681443DA89387018123A0F18A1E2018
:1059E0001D479389018AA1446365F700062093F45B
:1059F000F40F2686938501814A85EF00D1581E2039
:105A0000858FC207C1831EA083A70900A69723A084
:105A1000F9001E20C204C18063F3F40006A093873E
:105A2000C1899A239D46A14463E5E600862393F449
:105A3000F40F1389018A832909002686CE851385F0
:105A40000189CE94EF00315423209900620A135A41
:105A50008A418147635E0A001A20A14763E5E70097
:105A60001E2093F7F70F1A201D8F420741831AA0BB
:105A7000C20737070050C1831EBB91472309F702B5
:105A8000A309F702C9A09C232D4793F7F70F63657D
:105A9000F70A5D678A0713074731BA979C438287E5
:105AA0008347390003472900A207D98F13D78700FE
:105AB0008D469384018A6301D71063ECE600854725
:105AC000630AF70289476301F70E9309F00F8147D4
:105AD00005A89D47630FF712930720026304F7128E
